:020000040800F2
:100000008039002045010008D55600086F460008D9
:100010003D550008110A0008E98A000800000000A8
:10002000000000000000000000000000F55C000877
:100030006D0E0008000000006F5A0008F55E000811
:100040005F0100085F0100085F0100085F01000810
:100050005F0100085F0100085F0100085F01000800
:100060005F0100085F0100086F0E00085F010008D3
:100070005F0100085F0100085F0100085F010008E0
:10008000210E00085F0100085F0100086187000879
:10009000718700085F0100085F0100085F01000828
:1000A0005F0100085F0100085F0100085F010008B0
:1000B0005F0100085F0100085F0100085F010008A0
:1000C0005F0100085F0100085F0100085F01000890
:1000D0005F0100085F0100083D6700085F0100083C
:1000E0005F0100085F0100085F0100085F01000870
:1000F0005F0100085F0100085F0100085F01000860
:100100005F0100085F0100085F0100085F0100084F
:10011000016300085F010008616000087160000869
:100120005F0100085F010008310E00085F01000850
:10013000DFF80CD000F018FC00480047C594000818
:10014000803900200648804706480047FEE7FEE762
:10015000FEE7FEE7FEE7FEE7FEE7FEE7FEE7FEE777
:10016000815F000831010008202A04DB203A21FACF
:1001700002F00021704721FA02F3D040C2F12002C0
:10018000914008431946704740EA01039B0703D09A
:1001900009E008C9121F08C0042AFAD203E011F8C6
:1001A000013B00F8013B521EF9D27047D2B201E088
:1001B00000F8012B491EFBD270470022F6E710B56C
:1001C00013460A4604461946FFF7F0FF204610BDC5
:1001D000F0B480EA0102D40F4200B2EB410F02D228
:1001E0000246084611464A0042D0C30DDDB2C1F3B3
:1001F000C752AD1A202D35DAC1F3160141F40002C1
:1002000004B15242C5F1200602FA06F12A41104417
:10021000B3EBD05F23D0C4B1012DA0EBC35009DCF8
:10022000F0BC4FF0004202EAC352DBB200F500001E
:1002300000F00FBB400000F1807000EBC350A0F154
:10024000807040EAD170490009E0490841EAC07174
:10025000A0EBC35000F50000400800EBC350F0BC19
:1002600000F0EEBA6142012202EB4101001BF6E709
:10027000F0BC704781F00041AAE780F00040A7E79A
:1002800080EA010210B502F00043400022D04A008B
:100290001FD0010E01EB1261C0F35600C2F35602EB
:1002A00040F4000042F40002A0FB022000047F3969
:1002B000140400D0401C50EA124001D44000491EF2
:1002C000C2B20C0604EBD010401C4008802A02D0B9
:1002D00003E0002010BD20F00100002900DA00201A
:1002E000184310BD30B480EA010202F0004530F03E
:1002F000004221F0004013D090B1C30DD40DC2F3E1
:100300001601C0F31600E41A41F4000140F40002A3
:100310007D34914201D3641C00E04900002C02DAD4
:1003200030BC002070474FF400000023914201D3FD
:10033000891A034340084FEA4101F7D151B1914274
:1003400002D14FF0004105E002D24FF0010101E07F
:100350006FF0010103EBC450284430BC00F070BAC8
:100360002DE9FE4F804681EA0300C00F0C46009045
:1003700021F0004123F00045B8EB0200A94105D26D
:100380004046214690461C460B46024623F000405C
:10039000104347D0270DC7F30A00C3F30A51029058
:1003A000401A019040286BDAC3F3130040F4801B1D
:1003B0000098924620B10023D2EB030A63EB0B0BAB
:1003C00001985946C0F14002504600F018FA06461E
:1003D0000D4650465946019A00F020FA10EB0800ED
:1003E0006141002487EA115284EAE7731A4340D03E
:1003F000009A62B3019A012A4FEA075215DC001BEA
:1004000061EB02014FF0004202EA0752CDE90042DF
:10041000001C41F5801132462B4600F057FA03B01C
:10042000BDE8F08F40462146F9E7001B61EB020171
:10043000001C41F5801300185B412018A2F500173D
:1004400047EB030140EAD570B6196D4111E06D0824
:100450004FEA360645EAC0754FEA0752001B61EBCA
:100460000201001C41F5801149084FEA30000019D3
:10047000514132462B4603B0BDE8F04F00F017BAA9
:100480000098012240000023D0EB020263EBE073EE
:10049000009821464FEAE074B8EB000061EB0401DC
:1004A000E9E783F000435BE781F0004158E72DE97D
:1004B000FE4F81EA030404F0004421F0004100945F
:1004C0004FF0000B23F0004350EA01045ED052EAE3
:1004D00003045BD0C3F30A54C1F30A552C44A4F2BD
:1004E000F3340194A0FB0254C1F3130141F48011D1
:1004F000C3F3130343F4801301FB024400FB034ED8
:10050000840A970A44EA815447EA8357A4FB0768A0
:1005100002958D0A05FB07854FEA932C04FB0C54CA
:100520002705029D4FEA065847EA1637B5EB08053E
:100530006EEB070C870E920E47EA811742EA831290
:10054000A7FB0201B6EB0B0164EB00042B0D43EAA1
:100550000C335E1844EB1C50DA465146E7FB0201AF
:10056000C5F313044FEA0B3343EA14534FEA043242
:10057000019C43EA0603A4F10C040294009CCDE91B
:1005800000B400F0A3F903B0BDE8F08F00200146ED
:10059000F9E72DE9F04D81EA030404F0004B21F066
:1005A000004514464FF0000A23F0004150EA0502CE
:1005B00020D054EA01021DD0C5F30A570246C5F304
:1005C0001303C1F31300C1F30A5640F4801543F43A
:1005D0008013A7EB0608101BD64608F2FD3873EB14
:1005E000050002D308F1010801E092185B41B8F15F
:1005F000000F03DA00200146BDE8F08D00204FF423
:100600008011064684460EE0171B73EB050705D3E1
:10061000121B63EB050306434CEA010C49084FEA41
:10062000300092185B4150EA0107EDD152EA030015
:1006300012D082EA040083EA0501084305D0101BAA
:10064000AB4106D20122002306E000224FF0004316
:1006500002E06FF0010253101AEB06004CEB085158
:1006600010EB0A0041EB0B01BDE8F04D00F01FB9A3
:10067000C10F80EAE0700844CA079623002100F009
:10068000E8B80EB5C10F80EAE0700844CA0700213F
:1006900040F233438DE80E000A460B4600F016F98F
:1006A00003B000BD00F0004220F00040C10DC0F3D7
:1006B000160040F400007F2901DA002070479629D7
:1006C00003DCC1F19601C84001E096398840002A58
:1006D000F4D04042704770B5C1F30A5201F00045B2
:1006E0000024C1F3130140F2FF3341F480119A4218
:1006F00001DA002070BD40F233439A42A2F2334245
:1007000003DC5242FFF730FD00E090402C43F1D073
:10071000404270BD00F0004230F000400AD0C10DF0
:1007200001F56071C0F3160042EA0151C2084007AA
:100730001143704700200146704701F0004330B478
:1007400021F0004150EA010206D00A0DA2F56072C4
:10075000C1F31301002A02DC30BC00207047440FB3
:1007600044EAC104C100E01830BC00EBC25000F004
:1007700067B80000002801DBC0F10040002901DB60
:10078000C1F1004181427047002801DBC0F1004007
:10079000002901DBC1F10041884270472DE9F05F7B
:1007A0000546002092469B468846064681464024E0
:1007B0001BE02846414647462246FFF7D5FC5346F4
:1007C0005A46C01A914110D311461846224600F0ED
:1007D00016F82D1A67EB01084F462246012000212A
:1007E00000F00DF817EB00094E41201EA4F10104A2
:1007F000DFDC484631462A464346BDE8F09F202AC2
:1008000004DB203A00FA02F1002070479140C2F167
:10081000200320FA03F3194390407047202A06DB97
:10082000CB17203A41FA02F043EAE07306E041FABE
:1008300002F3D040C2F120029140084319467047AC
:100840000029A8BF7047401C490008BF20F00100E4
:10085000704710B4B0FA80FC00FA0CF050EA0104C2
:1008600004BF10BC704749B1CCF1200421FA04F454
:1008700011FA0CF118BF012121430843A3EB0C012D
:10088000CB1D4FEA00614FEA102042BF002010BC90
:10089000704700EBC35010440029A4BF10BC704740
:1008A000401C490008BF20F0010010BC704710B583
:1008B000141E73F1000408DA401C41F10001921883
:1008C0005B411A4301D120F0010010BD2DE9F04D2C
:1008D00092469B4611B1B1FA81F202E0B0FA80F281
:1008E00020329046FFF78BFF04460F4640EA0A008D
:1008F00041EA0B0153465A46084313D0114653EAC6
:10090000010019D0C8F140025046FFF72DFC054602
:100910000E46504659464246FFF771FF084305D040
:10092000012004E020463946BDE8F08D0020054353
:1009300046EAE0762C4337430A986305E40AA0EBC5
:1009400008000022FD0A44EA47540A3002D500207C
:100950000146E9E7010510196941DDE9084500197B
:100960006941BDE8F04DA2E7064C074D06E0E0689E
:1009700040F0010394E8070098471034AC42F6D3E6
:10098000FFF7DAFB909A0008B09A000870B521F0E2
:10099000004303430CD0C1F30A550024D5EB0405F2
:1009A00064EB0403D617AD1AB34102DB0020014605
:1009B00070BD201841EB025170BD70B58C1810F855
:1009C000015B15F0070301D110F8013B2A1106D194
:1009D00010F8012B03E010F8016B01F8016B5B1EAE
:1009E000F9D12B0705D40023521E0DD401F8013B89
:1009F000FAE710F8013BCB1A921C03E013F8015BF5
:100A000001F8015B521EF9D5A142D8D3002070BD78
:100A100000BFFEE70346042B15D007DC7BB1012B9A
:100A20000ED0022B0DD0032B12D10BE0202B0BD0BC
:100A3000212B0AD0222B09D0232B09D107E008E073
:100A400007E006E005E004E003E002E001E000E08A
:100A500000BF00BF002070470020704710B5002283
:100A60000449054805F0B1FF0449034805F0A6FF15
:100A7000002010BD942500205C180020AC2100202F
:100A800070B504460D462146034805F097FF02481D
:100A900005F070FF002070BD5C18002030B50246E4
:100AA0000B464FF6FF70002112E0555C68400024B1
:100AB0000AE000F0010525B14AF2010585EA60006F
:100AC00000E04010651CECB2082CF2DB4D1CE9B2D2
:100AD0009942EADB30BD00002DE9F04100244EE1EF
:100AE000A94850F8240000286DD054E004EB04100D
:100AF000A64901EB801000F2144004EB0411A34A54
:100B000002EB8111D1F8341450F8217004EB041079
:100B1000114601EB80100C3004EB041102EB811143
:100B2000D1F8341401EBC11146189948006828B176
:100B30003A4631469648006805F002F93946304693
:100B400004F0C2FD04EB0410904901EB8010D0F8D2
:100B50003404072808D1002004EB04118B4A02EB6F
:100B60008111C1F834040EE004EB0410874901EB55
:100B70008010D0F83404401C04EB0411834A02EBCB
:100B80008111C1F83404002004EB04117F4A02EB08
:100B90008111C1F83C0404EB04107C4901EB801086
:100BA000D0F83C040128A1D004EB041001EB801024
:100BB000D0F8340404EB0411744A02EB8111D1F82B
:100BC0003814884292D172480068401EA04270D109
:100BD00057E004EB04106D4901EB801000F2144063
:100BE00004EB0411694A02EB8111D1F8341450F876
:100BF000217004EB0410114601EB80100C3004EB63
:100C0000041102EB8111D1F8341401EBC111461823
:100C100000250BE05C4850F8250030B15A4951F8E6
:100C200025003A46314605F067F86D1C042DF1DBCE
:100C300004EB0410554901EB8010D0F83404072868
:100C400008D1002004EB0411504A02EB8111C1F8D5
:100C500034040EE004EB04104C4901EB8010D0F892
:100C60003404401C04EB0411484A02EB8111C1F822
:100C70003404002004EB0411444A02EB8111C1F852
:100C80003C0404EB0410414901EB8010D0F83C0413
:100C900001289ED004EB041001EB8010D0F834043E
:100CA00004EB0411394A02EB8111D1F8381488425F
:100CB0008FD138480068401EA0425FD146E004EB67
:100CC0000410324901EB801000F2144004EB0411CF
:100CD0002E4A02EB8111D1F8341450F8217004EB44
:100CE0000410114601EB80100C3004EB041102EBF0
:100CF0008111D1F8341401EBC111461804EB041032
:100D0000114601EB8010D0F83404072807D10020E9
:100D100004EB041102EB8111C1F834040EE004EB82
:100D200004101A4901EB8010D0F83404401C04EB85
:100D30000411164A02EB8111C1F83404002004EBBF
:100D40000411124A02EB8111C1F83C0404EB0410B7
:100D50000E4901EB8010D0F83C040128AFD004EB21
:100D6000041001EB8010D0F8340404EB0411074A9E
:100D700002EB8111D1F838148842A0D1641C042CF4
:100D8000FFF6AEAEBDE8F081D0000020F8020020F2
:100D9000E0000020E40000202DE9F04F89B08346F8
:100DA0008A461A4808905046FFF7B4FC184A194B77
:100DB000CDE90001FFF77BFBCDE902011649886C04
:100DC000FFF7A8FC8046DDE90223FFF7C9FA4FF0E0
:100DD0000042124BCDE90401FFF769FB06460F46BE
:100DE0000A495846FFF74CFA8046FFF793FC324613
:100DF0003B46CDE90601FFF7B3FA0446FFF79DFC39
:100E00000549886409B0BDE8F08F00000AD7233C8B
:100E10007B14AE47E17A743FA802002014AEEF3F86
:100E200010B5024800F08EF910BD0000181800201F
:100E300010B5024800F086F910BD0000D41700205C
:100E400030B590F840500124AC40C56B6C6004682C
:100E500063604468102C04D10468A2600468E160F7
:100E600003E00468A1600468E26030BD704710B51B
:100E7000102000F08FFC10BD10B5002201210A489F
:100E800000F045FE4FF4FA7000F0BCFB0022042194
:100E9000054800F03CFEC82000F0B4FB012204210C
:100EA000014800F034FE10BD000C01407047000006
:100EB00070B5134D2D6805F00400124D2D6805F432
:100EC0000041114D2D6805F020020F4D2D6805F0F1
:100ED00008030D4D2D6805F0100400B1012001B18B
:100EE000022102B1042203B1082304B1102444EA10
:100EF000030515430D430543044E358070BD0000C6
:100F00000814014008080140080C0140A40000201A
:100F100070B50A480468001D0568001D0668344461
:100F200054B108220649204603F010FC042204496B
:100F30001031284603F00AFC70BD0000E8F7FF1FDF
:100F4000360100200146002291F82100022808D035
:100F50000420886300BF002081F8200000BF01202A
:100F600070470868006820F00E000B681860086879
:100F7000006820F001000B68186091F840300120F3
:100F80009840CB6B5860012081F8210000BF002001
:100F900081F8200000BF1046E2E7000070B504466B
:100FA000002594F82100022803D00420A063012525
:100FB000C1E02068006820F00E0021680860206809
:100FC000006820F00100216808605C4920688842C0
:100FD00052D95A4978392068884201D1012047E026
:100FE000564964392068884201D1102040E05349B5
:100FF00050392068884201D1801539E04F493C3989
:101000002068884201D1801432E04C492839206898
:10101000884202D14FF480302AE0484914392068D0
:10102000884202D14FF4801022E04449206888426F
:1010300001D140041CE042492068884201D10120CE
:1010400016E03F4914312068884201D110200FE09A
:101050003B4928312068884201D1801508E0384991
:101060003C312068884201D1801401E04FF4803087
:101070003349091F086051E03049783920688842B7
:1010800001D1012047E02D4964392068884201D10F
:10109000102040E0294950392068884201D180154C
:1010A00039E026493C392068884201D1801432E079
:1010B000224928392068884202D14FF480302AE042
:1010C0001E4914392068884202D14FF4801022E072
:1010D0001A492068884201D140041CE01849206860
:1010E000884201D1012016E0154914312068884258
:1010F00001D110200FE0124928312068884201D127
:10110000801508E00E493C312068884201D18014E6
:1011100001E04FF48030094980394860012084F8AB
:10112000210000BF002084F8200000BF606B10B1D8
:101130002046616B8847284670BD00008000024051
:101140000804024070B50446E06B05682068066834
:1011500094F84010042088402840002875D006F0FC
:1011600004000028FAD02068006800F0200028B9A8
:101170002068006820F0040021680860D5492068D4
:10118000884254D9D34978392068884201D1042053
:1011900049E0D04964392068884201D1402042E0CA
:1011A000CC4950392068884201D100153BE0C9493B
:1011B0003C392068884202D14FF4804033E0C54971
:1011C00028392068884202D14FF480202BE0C149A1
:1011D00014392068884202D14FF4800023E0BD49D1
:1011E0002068884201D1C0041DE0BB4920688842C4
:1011F00001D1042017E0B84914312068884201D198
:10120000402010E0B44928312068884201D10015FF
:1012100009E0B1493C312068884202D14FF4804056
:1012200001E04FF48020AC49091F086054E0A9494F
:1012300078392068884201D104204AE0A549643900
:101240002068884202D1402043E04CE0A149503957
:101250002068884201D100153BE09E493C39206856
:10126000884202D14FF4804033E09A4928392068FF
:10127000884202D14FF480202BE09649143920682F
:10128000884202D14FF4800023E0924920688842CE
:1012900001D1C0041DE090492068884201D104209A
:1012A00017E08D4914312068884201D1402010E0B8
:1012B000894928312068884201D1001509E0864912
:1012C0003C312068884202D14FF4804001E04FF465
:1012D0008020804980394860E06A002802D020469A
:1012E000E16A8847F4E094F84010022088402840E2
:1012F000002871D006F002000028FAD020680068AB
:1013000000F0200040B92068006820F00A00216841
:101310000860012084F821006E492068884254D971
:101320006C4978392068884201D1022049E0694936
:1013300064392068884201D1202042E06549503953
:101340002068884201D140153BE062493C39206861
:10135000884202D14FF4005033E05E4928392068BA
:10136000884202D14FF400302BE05A4914392068EA
:10137000884202D14FF4001023E056492068884289
:1013800001D180041DE054492068884201D1022027
:1013900017E0514914312068884201D1202010E023
:1013A0004D4928312068884201D1401509E04A4959
:1013B0003C312068884202D14FF4005001E04FF4E4
:1013C00000304549091F086054E0424978392068D7
:1013D000884202D102204AE057E03E496439206841
:1013E000884201D1202042E03A49503920688842A1
:1013F00001D140153BE037493C392068884202D191
:101400004FF4005033E0334928392068884202D134
:101410004FF400302BE02F4914392068884202D164
:101420004FF4001023E02B492068884201D180044A
:101430001DE029492068884201D1022017E0264991
:1014400014312068884201D1202010E0224928313F
:101450002068884201D1401509E01F493C312068CD
:10146000884202D14FF4005001E04FF40030194996
:101470008039486000BF002084F8200000BFA06AC7
:1014800030B32046A16A884722E094F84010082033
:1014900088402840E0B106F00800C8B12068006824
:1014A00020F00E002168086094F840100120884068
:1014B000E16B48600120A06384F8210000BF002098
:1014C00084F8200000BF206B10B12046216B8847B4
:1014D00070BD000080000240080402400146002266
:1014E00009B9012070471E4B086898420BD21D4B6A
:1014F0000868C01A1423B0FBF3F080000864194890
:101500000838C8630AE0164B0868C01A1423B0FBF9
:10151000F3F08000086412480838C863022081F89C
:1015200021000868026843F6F0708243D1E90103A4
:101530001843CB6818430B6918434B6918438B69F0
:101540001843CB691843024308680260002088638F
:10155000012081F82100002081F8200000BFC1E7B0
:1015600008040240080002402DE9F04104460D46FF
:1015700016461F464FF0000800BF94F820000128CF
:1015800002D10220BDE8F081012084F8200000BFD4
:1015900094F8210001282CD1022084F82100002099
:1015A000A0632068006820F00100216808603B46C5
:1015B000324629462046FFF743FCE06A30B12068F6
:1015C000006840F00E00216808600BE020680068A9
:1015D00020F00400216808602068006840F00A00DC
:1015E000216808602068006840F0010021680860F8
:1015F00006E000BF002084F8200000BF4FF0020882
:101600004046BFE770B5044600F088FA0646254616
:10161000681C10B104480078054400BF00F07EFA51
:10162000801BA842FAD370BD680100202DE9F0416B
:1016300002460B4600208BE00127874007EA0301A2
:1016400000297DD0464F4FEA900C57F82C40870771
:101650004FEA177C0F2707FA0CF73C40414FBA427C
:1016600001D1002719E0404FBA4201D1012714E00F
:101670003E4FBA4201D102270FE03D4FBA4201D19D
:1016800003270AE03B4FBA4201D1042705E03A4F55
:10169000BA4201D1052700E006274FEA807C4FEAD5
:1016A0001C7C07FA0CF7A74230D187074FEA177C5A
:1016B0000F2707FA0CF42A4F4FEA900C57F82C70BA
:1016C000A743DFF89CC04FEA90084CF828702B4FD6
:1016D0003F688F43DFF8A4C0CCF800700CF104071A
:1016E0003F688F430CF1040CCCF800700CF1040738
:1016F0003F688F430CF1040CCCF800700CF1040728
:101700003F688F430CF1040CCCF80070FF2901D81E
:10171000174600E0171D3D46FF2901D8870002E06B
:10172000A0F10807BF003E462F684FF00F0C0CFADF
:1017300006FC27EA0C074FF0040C0CFA06FC00E04C
:1017400005E047EA0C072F60D7688F43D760401C3D
:1017500023FA00F7002F7FF46FAFBDE8F08100009F
:101760000800014000080140000C01400010014049
:101770000014014000180140001C01400004014019
:1017800010B50446102C03D103F03CF904F0D8F94D
:1017900010BD000010B5044604480068204020B188
:1017A000024804602046FFF7EBFF10BD140401401F
:1017B0002DE9F847024600239C467BE14FF00108E3
:1017C00008FA03F4D1F8008008EA0400A0427DD1B1
:1017D000DFF8F4A2D1F80480A8EB0A09D0453AD08A
:1017E00014DCB8F1030F50D009DCB8F1000F31D090
:1017F000B8F1010F1CD0B8F1020F49D120E0B8F1C7
:10180000110F18D0B8F1120F42D11EE0B9F5881FA0
:1018100025D006DCB9F5803F20D0B9F5801F37D13F
:101820001AE0B9F5001F18D0B9F5041F30D117E040
:10183000D1F80CC02DE0D1F80C8008F1040C28E0A0
:10184000D1F80C8008F1080C23E0D1F80C8008F1E5
:101850000C0C1EE000BF00BF00BF00BF00BF00BFF8
:10186000D1F80880B8F1000F02D14FF0040C0BE062
:10187000D1F80880B8F1010F03D14FF0080C1461C2
:1018800002E04FF0080C546103E04FF0000C00E060
:1018900000BF00BFFF2801D8904601E002F1040814
:1018A0004646FF2802D84FEA830803E0A3F1080860
:1018B0004FEA88084746D6F800804FF00F0909FA2A
:1018C00007F928EA09080CFA07F900E07AE048EA83
:1018D0000908C6F80080D1F8048008F08058B8F1F3
:1018E000805F6FD100BFDFF8E481D8F8188048F03E
:1018F0000108DFF8D891C9F81880C846D8F81880D0
:1019000008F00108CDF8008000BF00BF4FEAB938E9
:101910004FEA930958F829504FEA83784FEA18792B
:101920004FF00F0808FA09F825EA0805DFF8A0814A
:10193000424502D14FF0000824E0DFF8988142458B
:1019400002D14FF001081DE0DFF88C81424502D141
:101950004FF0020816E0DFF88481424502D14FF0D3
:1019600003080FE0DFF87881424502D14FF0040808
:1019700008E0DFF87081424502D14FF0050801E030
:101980004FF006084FEA83794FEA197908FA09F807
:1019900048EA0505DFF850814FEA930948F82950D5
:1019A000D1F8048008F48038B8F5803F0BD1DFF817
:1019B0003C81D8F8008048EA0008DFF83091C9F887
:1019C00000800AE075E0DFF82481D8F8008028EA7A
:1019D0000008DFF81891C9F80080D1F8048008F4F5
:1019E0000038B8F5003F0ED1DFF8008108F1040897
:1019F000D8F8008048EA0008DFF8F09009F10409FF
:101A0000C9F800800DE0DFF8E48008F10408D8F898
:101A1000008028EA0008DFF8D49009F10409C9F829
:101A20000080D1F8048008F48018B8F5801F0ED12A
:101A3000DFF8B88008F10808D8F8008048EA000804
:101A4000DFF8A89009F10809C9F800800DE0DFF877
:101A50009C8008F10808D8F8008028EA0008DFF820
:101A60008C9009F10809C9F80080D1F8048008F4C5
:101A70000018B8F5001F0ED1DFF8708008F10C08CF
:101A8000D8F8008048EA0008DFF8609009F10C09F6
:101A9000C9F800800DE0DFF8548008F10C08D8F890
:101AA000008028EA0008DFF8449009F10C09C9F821
:101AB00000805B1CD1F8008028FA03F8B8F1000F11
:101AC0007FF47CAEBDE8F8870000111000100240E2
:101AD00000080140000C01400010014000140140CA
:101AE00000180140001C01400800014000040140B2
:101AF000024693680B400BB1012000E000207047C4
:101B0000C2680A400AB1416100E0016170470AB150
:101B1000016101E00B0403617047000001480068A7
:101B2000704700006001002070B504460CB9012028
:101B300070BD94F83D0028B9002084F83C00204690
:101B400000F0CEF8242084F83D002068006820F0E2
:101B500001002168086000F0B9FE05465C49606834
:101B6000884206D85B48854201D2012007E0002068
:101B700005E05948854201D2012000E000200128FB
:101B800000D1D5E75548B5FBF0F62068406820F055
:101B90003F003043216848604D496068884201D861
:101BA000701C07E04FF4967070434FF47A71B0FBED
:101BB000F1F0401C2168096A21F03F0108432168C7
:101BC000086243496068884214D8681E6168490009
:101BD000B0FBF1F0401CC0F30B00042801D204203C
:101BE0003DE0681E61684900B0FBF1F0401CC0F3A5
:101BF0000B0034E0A06838B9681E616801EB410150
:101C0000B0FBF1F0401C0AE0681E616801EBC10204
:101C100002EB0111B0FBF1F0401C40F48040C0F336
:101C20000B0008B901201AE0A06848B9681E616875
:101C300001EB4101B0FBF1F0401CC0F30B000CE0E4
:101C4000681E616801EBC10202EB0111B0FBF1F00B
:101C5000401CC0F30B0040F4804040F40040216879
:101C6000C9694CF6FF72914308432168C861D4E901
:101C7000070108432168096821F0C0010843216871
:101C80000860D4E9031008432168896848F2FF32EC
:101C90009143084321688860D4E90501084321681D
:101CA000C96821F0FF0108432168C8602068006806
:101CB00040F001002168086000202064202084F8A2
:101CC0003D000020206384F83E0000BF30E70000A4
:101CD000A086010080841E0000093D0040420F00E4
:101CE00010B586B004460020029003900490059041
:101CF00016492068884226D100BF1548806940F007
:101D00000800134988610846806900F008000190C6
:101D100000BF00BF4FF440600290122003900320E8
:101D2000059002A90B48FFF743FD00BF0848C069B2
:101D300040F480000649C8610846C06900F480008C
:101D4000019000BF00BF06B010BD00000058004069
:101D500000100240000C0140034800680349097864
:101D600008440149086070476001002068010020B4
:101D700010B50848006840F01000064908600320CC
:101D800000F0A8F8022000F007F800F02BF800207F
:101D900010BD00000020024070B504460E480078D7
:101DA0004FF47A71B1FBF0F00C490968B1FBF0F522
:101DB000284601F0E7FB08B1012070BD102C07D2C6
:101DC00000222146501E00F047F80548046001E05B
:101DD0000120F2E70020F0E7680100206C010020FC
:101DE0006401002008B500BF1148806940F001007F
:101DF0000F4988610846806900F00100009000BF2B
:101E000000BF00BF0846C06940F08050C861084666
:101E1000C06900F08050009000BF00BF00BF0549BE
:101E2000486820F0E06040F00070486000BF08BDE6
:101E3000001002400000014001460846002809DB6E
:101E400000F01F0301229A4043099B0003F1E023A5
:101E5000C3F8002100BF70472DE9F05F80460D46B2
:101E60001646002706F0B4FE074639462A46334692
:101E700001F00700C0F1070ABAF1040F02D94FF0D0
:101E8000040A01E0C0F1070AD14600F1040ABAF1E0
:101E9000070F02D24FF0000A01E0A0F1030AD44676
:101EA0004FF0010A0AFA09FAAAF1010A0AEA020A3B
:101EB0000AFA0CFA4FF0010B0BFA0CFBABF1010B19
:101EC0000BEA030B4AEA0B042146404606F088FE63
:101ED000BDE8F09F00BF00F00702064B19684FF6FF
:101EE000FF031940044B0B4343EA0221014B1960E5
:101EF00000BF70470CED00E00000FA0570B5054624
:101F00000C4604F08000802806D104F0070605F195
:101F1000280000EB461103E005F5947000EB441136
:101F20001AB900200873CB8004E0012008730B81EC
:101F3000180C4881002070BD704770B504460D46EE
:101F400004F1280101EB45114A692946D4F86802D9
:101F500005F0AEF870BD70B504460D4604F59471F9
:101F600001EB45114A692946D4F8680205F020F9C9
:101F700070BD70B504460E4606F08000802808D17A
:101F800006F0070104F1280000EB411501206870FC
:101F900007E006F0070104F5947000EB41150020FE
:101FA000687006F00700287000BF94F82802012826
:101FB00001D1022070BD012084F8280200BF29460B
:101FC000206805F09EFF00BF002084F8280200BFB3
:101FD00000BFEFE770B504460E4606F00F006168DB
:101FE000884201D9012070BD06F08000802808D108
:101FF00006F0070104F1280000EB4115012068708C
:1020000007E006F0070104F5947000EB411500208D
:1020100068700020A87006F00700287000BF94F8D0
:102020002802012801D10220DDE7012084F82802DE
:1020300000BF2946206806F0C4F800BF002084F8DD
:10204000280200BF00BFCEE7024601F0070302F5F9
:10205000947000EB4310C06970472DE9F0470546C6
:102060000E4690461F464FF0000906F0800080287B
:1020700008D106F0070105F1280000EB411401200A
:10208000607007E006F0070105F5947000EB41145D
:102090000020607006F007002070C4F81080E77020
:1020A000607808B12078E081022F01D100202071F2
:1020B00000BF95F82802012802D10220BDE8F08770
:1020C000012085F8280200BF2146286805F0CAFCD7
:1020D00000BF002085F8280200BF4846EEE72DE942
:1020E000F04105460E461746984606F0070105F5ED
:1020F000947000EB41146761C4F818800020E0611F
:10210000607006F00700207006F0070020B9214635
:10211000286806F0F1F803E02146286806F0ECF89C
:102120000020BDE8F08170B504460D4605F00700BB
:102130006168884201D9012070BD05F080008028C7
:1021400008D105F0070104F1280000EB4116012039
:10215000707005E004F5947000EB45160020707077
:102160000120B07005F00700307000BF94F828021D
:10217000012801D10220DFE7012084F8280200BFF6
:102180003146206806F08AF805F0070020B904F50A
:102190000C71206806F012F800BF002084F82802B5
:1021A00000BF00BFC8E72DE9F04105460E461746BF
:1021B000984606F0070105F1280000EB411467611D
:1021C000C4F818800020E0610120607006F007006C
:1021D000207006F0070020B92146286806F08CF828
:1021E00003E02146286806F087F80020BDE8F0816A
:1021F00010B50446206806F0C3FA00F40040B0F5BC
:10220000004F02D1204603F066FA206806F0B8FAC3
:1022100000F48060B0F5806F0ED12068B0F8440003
:1022200020F480602168A1F84400204600F062F9A3
:102230000021204600F07EF9206806F0A1FA00F4A3
:102240008040B0F5804F07D12068B0F8440020F4FA
:1022500080402168A1F84400206806F091FA00F45B
:102260000050B0F5005F07D12068B0F8440020F4BA
:1022700000502168A1F84400206806F081FA00F4BB
:102280008050B0F5805F1CD12068B0F840004FF658
:10229000FB7108402168A1F840002068B0F84000B8
:1022A0004FF6F77108402168A1F84000204600F081
:1022B00033F92068B0F8440020F480502168A1F878
:1022C0004400206806F05CFA00F40060B0F5006F8E
:1022D0002AD12068B0F8400040F008002168A1F839
:1022E00040002068B0F8440020F400602168A1F8A4
:1022F00044002068B0F8400040F004002168A1F8D4
:102300004000206806F03CFA00F48050B0F5805F91
:1023100007D12068B0F8440020F480502168A1F86B
:102320004400204600F048F9206806F029FA00F43D
:102330000070B0F5007F0AD12068B0F8440020F4A6
:1023400000702168A1F84400204600F0ECF82068F5
:1023500006F016FA00F48070B0F5807F07D120688F
:10236000B0F8440020F480702168A1F8440010BD4A
:1023700030B585B0044614B9012005B030BD94F8DD
:10238000290228B9002084F82802204600F088F8A5
:10239000032084F82902206805F006FF142204F1C6
:1023A00010016846FDF7F0FE94E80F0005F0A5FD6A
:1023B00020B1022084F829020120DEE700212068F4
:1023C00006F007FA002526E0012104F1280000EBC1
:1023D0004510417004F1280000EB4510057004F130
:1023E000280000EB4510C581002104F1280000EB16
:1023F0004510C17004F1280000EB4510016104F1A3
:10240000280000EB4510416104F1280000EB451065
:102410008161681CC5B26068A842D5D8002520E05B
:10242000002104F5947000EB4510417004F59470A0
:1024300000EB4510057004F5947000EB4510C17079
:1024400004F5947000EB4510016104F5947000EB05
:102450004510416104F5947000EB45108161681CE2
:10246000C5B26068A842DBD8142204F110016846A6
:10247000FDF78AFE94E80F0005F087FE20B10220E8
:1024800084F82902012078E7002084F82400012044
:1024900084F82902206805F075FE00206DE7000031
:1024A00038B504461149206888421DD100BF104844
:1024B000C06940F400000E49C8610846C06900F4D4
:1024C0000000009000BF00BF002204211320FFF78E
:1024D000C3FC1320FFF7B0FC002206211420FFF7F5
:1024E000BBFC1420FFF7A8FC38BD0000005C0040D6
:1024F0000010024070B504460125A068022801D0F2
:10250000FEF7D4FC2946D4F8680204F081FFD4F821
:10251000680204F033FF70BD10B50446D4F86802B9
:1025200004F05AFF10BD10B50446D4F8680204F058
:102530005EFF10BD70B504460D4600BF94F828023A
:10254000012801D1022070BD012084F8280200BFBB
:1025500084F824502946206806F03EF900BF002088
:1025600084F8280200BF00BFEDE710B5044604F56B
:102570000C71D4F8680204F062FF10BD10B5044677
:1025800000BF94F82802012801D1022010BD0120CB
:1025900084F8280200BF01212046FFF7CDFC206807
:1025A00005F0EDFD206806F0D1F800BF002084F8AA
:1025B000280200BF00BFE9E710B50446D4F868025E
:1025C00004F096FFA06928B10348006840F00600B7
:1025D0000149086010BD000010ED00E007480068E8
:1025E00040F00200054908600548006840F004001A
:1025F0000349086000BF00BF30BF70470070004053
:1026000010ED00E0F8B5044600260025207800F023
:10261000010000286BD000274348C06900F08050BB
:1026200070B900BF4048C06940F080503E49C86161
:102630000846C06900F08050009000BF00BF01272D
:102640003A48006800F48070B0B93848006840F437
:10265000807036490860FFF761FA064606E0FFF72A
:102660005DFA801B642801D90320F8BD2F4800685B
:1026700000F480700028F2D02B48006A00F4407506
:102680002DB3A08800F44070A84220D02648006AEC
:1026900020F4407501202649086000200860224887
:1026A000056205F0010090B1FFF738FA064608E030
:1026B000FFF734FA801B41F28831884201D90320A8
:1026C000D3E71948006A00F002000028F0D016484D
:1026D000006A20F440706168084313490862012FC2
:1026E00004D10846C06920F08050C86100BF20783E
:1026F00000F00200022807D10B48406820F4404057
:10270000A168084308494860207800F010001028AC
:1027100007D10548406820F48000616908430249F8
:1027200048600020A1E70000001002400070004057
:102730004004424270B504460D460CB9012070BDFC
:102740005A48006800F00700A8420ED257480068B7
:1027500020F007002843554908600846006800F04B
:102760000700A84201D00120E9E7207800F002002C
:1027700002281DD1207800F00400042805D14C481F
:10278000406840F4E0604A494860207800F0080062
:10279000082805D14648406840F4605044494860E4
:1027A0004348406820F0F000A16808434049486071
:1027B000207800F0010078B36068012806D13C4819
:1027C000006800F4003090B90120B8E76068022882
:1027D00006D13748006800F0007040B90120AEE72C
:1027E0003348006800F0020008B90120A7E730482C
:1027F000406820F00300616808432D494860FFF7F6
:102800008DF9064609E0FFF789F9801B41F288310E
:10281000884202D9032092E707E02548406800F08B
:102820000C006168B0EB810FEDD12048006800F02A
:102830000700A8420ED91D48006820F00700284371
:102840001A4908600846006800F00700A84201D055
:10285000012074E7207800F00400042807D1144810
:10286000406820F4E060E16808431149486020783E
:1028700000F00800082808D10D48406820F4605096
:10288000216940EAC1000A49486000F03FF8084960
:102890004968C1F30311074A515CC8400649086002
:1028A00006480068FFF778FA002048E70020024059
:1028B00000100240D59900086C010020640100203E
:1028C00001480068704700006C01002000B5FFF768
:1028D000F7FF04494968C1F30221034A515CC8402B
:1028E00000BD000000100240E599000800B5FFF7A8
:1028F000E7FF04494968C1F3C221034A515CC8405B
:1029000000BD000000100240E5990008F0B585B058
:102910000FF26C0C9CE8E01001A8A0E8E0101CA5E8
:102920002D68009500210022002300240020194D6D
:10293000696801F00C05F5B1042D02D0082D19D1FC
:1029400001E0154819E001ADC1F38346AC5D01F427
:10295000803555B10F4D6D68C5F340451DF8052014
:102960000D4D6543B5FBF2F302E00C4D04FB05F39E
:10297000184602E000BF084800BF00BF05B0F0BD28
:1029800002030405060708090A0B0C0D0E0F1010B0
:10299000010200000010024000127A0000093D0010
:1029A000F8B504460CB90120F8BD207800F001000C
:1029B000002878D0F848406800F00C0004280CD0BB
:1029C000F548406800F00C00082811D1F248406832
:1029D00000F48030B0F5803F0AD1EF48006800F481
:1029E000003000285FD0606800285CD10120DBE760
:1029F00000BF6068B0F5803F06D1E748006840F44A
:102A00008030E549086028E0606858B9E24800680D
:102A100020F48030E04908600846006820F48020F7
:102A200008601AE06068B0F5A02F0BD1DA480068A2
:102A300040F48020D84908600846006840F480309F
:102A400008600AE0D448006820F48030D249086069
:102A50000846006820F48020086000BF606888B1E4
:102A6000FFF75CF8054606E0FFF758F8401B6428BE
:102A700001D9032098E7C848006800F40030002816
:102A8000F2D010E0FFF74AF8054606E0FFF746F8F7
:102A9000401B642801D9032086E7BF48006800F482
:102AA00000300028F2D1207800F00200022857D12F
:102AB000B948406800F00C0050B1B748406800F0D9
:102AC0000C00082818D1B448406800F4803098B948
:102AD000B148006800F0020020B12069012801D04F
:102AE000012061E7AC48006820F0F800616940EA25
:102AF000C100A949086033E02069E8B10120A74975
:102B00000860FFF70BF8054606E0FFF707F8401BE3
:102B1000022801D9032047E79F48006800F002001F
:102B20000028F2D09C48006820F0F800616940EA73
:102B3000C1009949086013E0002098490860FEF739
:102B4000EDFF054606E0FEF7E9FF401B022801D92C
:102B5000032029E79048006800F002000028F2D125
:102B6000207800F0080008282DD1A069B8B1012014
:102B70008B490860FEF7D2FF054606E0FEF7CEFF60
:102B8000401B022801D903200EE78348406A00F069
:102B900002000028F2D0012002F06AFF13E00020BA
:102BA0007F490860FEF7BAFF054606E0FEF7B6FF6C
:102BB000401B022801D90320F6E67748406A00F05E
:102BC00002000028F2D1207800F00400042873D11C
:102BD00000277148C06900F0805070B900BF6E488E
:102BE000C06940F080506C49C8610846C06900F077
:102BF0008050009000BF00BF01276A48006800F4C1
:102C00008070B0B96748006840F48070654908601A
:102C1000FEF784FF054606E0FEF780FF401B6428B0
:102C200001D90320C0E65F48006800F480700028E6
:102C3000F2D000BFE068012806D15748006A40F092
:102C400001005549086227E0E06858B95248006A17
:102C500020F00100504908620846006A20F0040094
:102C6000086219E0E06805280BD14B48006A40F083
:102C70000400494908620846006A40F00100086201
:102C80000AE04548006A20F001004349086208460E
:102C9000006A20F00400086200BFE068A0B1FEF7FF
:102CA0003DFF054609E0FEF739FF401B41F2883140
:102CB000884202D9032077E622E03748006A00F014
:102CC00002000028EFD012E0FEF728FF054608E0DA
:102CD000FEF724FF401B41F28831884201D90320CE
:102CE00062E62D48006A00F002000028F0D1012FB2
:102CF00005D12948C06920F080502749C86100BF2C
:102D0000E069C8B32448406800F00C00082860D08F
:102D1000E069022848D1002020490866FEF7FEFE3F
:102D2000054606E0FEF7FAFE401B022801D9032003
:102D30003AE61948006800F000700028F2D1206AD5
:102D4000B0F5803F07D11448406820F40030A168F6
:102D5000084311494860D4E9080108430E4949680D
:102D600021F4741108430C49486001200B4908669E
:102D7000FEF7D4FE054607E03DE0FEF7CFFE401B20
:102D8000022801D903200FE60348006800F0007014
:102D90000028F2D02FE00000001002400000424264
:102DA0008004424200700040002014490866FEF78B
:102DB000B5FE054606E0FEF7B1FE401B022801D92C
:102DC0000320F1E50E48006800F000700028F2D101
:102DD00011E0E069012800D1E6E50948466806F4FB
:102DE0008031206A814204D106F47011606A814208
:102DF00001D00120D8E50020D6E5000000004242C5
:102E00000010024010B504460CB9012010BD606AE4
:102E100000B900BF0021A16294F8510028B9002038
:102E200084F85000204600F06DF8022084F851002C
:102E30002068006820F0400021680860D4E90101A2
:102E40000843E16808432169084361690843218B0D
:102E500001F400710843E1690843216A0843A16A4B
:102E60000843216808600421A06901EA1040216834
:102E700048602068C06920F400602168C8610020B3
:102E80006065012084F851000020BFE710B50446BA
:102E90001649206888420AD11548806920F480507C
:102EA00013498861E0211348FEF7C0FB1DE0124979
:102EB000206888420BD10E48C06920F480400C493C
:102EC000C8614FF460410D48FEF7B0FB0DE00C49BE
:102ED0002068884209D10648C06920F400400449AE
:102EE000C86128210548FEF7A1FB10BD0030014054
:102EF000001002400008014000380040000C014072
:102F0000003C004010B586B00446002002900390BB
:102F1000049005904949206888422ED100BF484856
:102F2000806940F48050464988610846806900F411
:102F30008050019000BF00BF00BF0846806940F08C
:102F4000040088610846806900F00400019000BF19
:102F500000BFA0200290022003900320059002A948
:102F60003848FEF725FC4020029000200390049092
:102F700002A93448FEF71CFC5DE033492068884212
:102F800030D100BF2E48C06940F480402C49C86150
:102F90000846C06900F48040019000BF00BF00BF38
:102FA0000846806940F0080088610846806900F0A2
:102FB0000800019000BF00BF4FF4204002900220A3
:102FC00003900320059002A92048FEF7F1FB4FF47F
:102FD0008040029000200390049002A91B48FEF755
:102FE000E7FB28E01A492068884224D100BF144832
:102FF000C06940F400401249C8610846C06900F445
:103000000040019000BF00BF00BF0846806940F04B
:10301000080088610846806900F00800019000BF40
:1030200000BF28200290022003900320059002A9EF
:103030000648FEF7BDFB06B010BD000000300140A1
:10304000001002400008014000380040000C014020
:10305000003C00402DE9F8430446884616461D46CC
:103060004FF000096068B0F5827F0DD1A06858B9B3
:10307000042084F8510033464246414620460095DC
:1030800000F06BF9BDE8F88300BF94F85000012808
:1030900001D10220F6E7012084F8500000BFFEF7BE
:1030A0003DFD074694F85100012802D04FF0020977
:1030B00078E0B8F1000F00D016B94FF0010971E0C7
:1030C000042084F8510000206065C4F83880A68789
:1030D000E6872063A086E08620646064A068B0F57F
:1030E000004F05D12068006820F480402168086006
:1030F0002068006800F04000402805D02068006883
:1031000040F0400021680860E068F8B91AE02068E3
:10311000806800F0010050B12068007BA16B08704E
:10312000A06B401CA063E08F401EE0870AE0FEF722
:10313000F5FCC01BA84201D3681C00B915B94FF0BB
:1031400003092FE0E08F0028E1D11EE01AE020689B
:10315000806800F0010050B12068C068A16B088051
:10316000A06B801CA063E08F401EE0870AE0FEF7A2
:10317000D5FCC01BA84201D3681C00B915B94FF09B
:1031800003090FE0E08F0028E1D13A4629462046A6
:1031900002F00CFD08B120206065606D08B14FF0B1
:1031A000010900BF012084F8510000BF002084F80D
:1031B000500000BF484665E72DE9F84F04468846B1
:1031C00016461D464FF0000A00BF94F85000012833
:1031D00002D10220BDE8F88F012084F8500000BF22
:1031E000FEF79CFC0746B14694F85100012802D036
:1031F0004FF0020AA7E0B8F1000F00D016B94FF067
:10320000010AA0E0032084F8510000206065C4F8A2
:103210003080A686E686A063A087E087606420648D
:10322000A068B0F5004F05D12068006840F48040E8
:10323000216808602068006800F04000402805D040
:103240002068006840F0400021680860E068B0F540
:10325000006F2FD1606810B1B9F1010F09D1206B57
:1032600000882168C860206B801C2063E08E401EAF
:10327000E0861BE02068806800F0020002280AD186
:10328000206B00882168C860206B801C2063E08E62
:10329000401EE0860AE0FEF741FCC01BA84201D3B5
:1032A000681C00B915B94FF0030A4CE0E08E002805
:1032B000E0D12EE0606810B1B9F1010F09D1206BA7
:1032C000007821680873206B401C2063E08E401E4C
:1032D000E0861BE02068806800F0020002280AD126
:1032E000206B007821680873206B401C2063E08EFF
:1032F000401EE0860AE0FEF711FCC01BA84201D385
:10330000681C00B915B94FF0030A1CE0E08E0028D4
:10331000E0D13A462946204602F084FC08B120203C
:103320006065A06850B900BF002000902068C068A8
:10333000009020688068009000BF00BF606D08B1F9
:103340004FF0010A00BF012084F8510000BF0020A7
:1033500084F8500000BF50463CE72DE9FF5F04466B
:10336000884691461D460E9E012002900020019045
:1033700000BF94F85000012803D1022004B0BDE83A
:10338000F09F012084F8500000BFFEF7C7FB0746FE
:1033900094F851B060680390AA46BBF1010F0BD0BE
:1033A0000398B0F5827F04D1A06810B9BBF1040F77
:1033B00002D002200190DBE0B8F1000F03D0B9F198
:1033C000000F00D015B901200190D1E094F8510010
:1033D000042802D0052084F8510000206065C4F85C
:1033E0003890E587A587C4F83080E586A5862064F7
:1033F00060642068006800F04000402805D0206824
:10340000006840F0400021680860E068B0F5006F97
:103410004AD1606810B1BAF1010F09D1206B008860
:103420002168C860206B801C2063E08E401EE0860F
:1034300033E02068806800F00200022810D1E08E9E
:1034400070B1029801280BD1206B00882168C860F8
:10345000206B801C2063E08E401EE08600200290DE
:103460002068806800F0010068B1E08F58B12068E2
:10347000C068A16B0880A06B801CA063E08F401E19
:10348000E08701200290FEF749FBC01BB04204D345
:10349000701C10B1032001906AE0E08E0028C8D1B2
:1034A000E08F0028C5D14AE0606810B1BAF1010F81
:1034B00009D1206B007821680873206B401C2063C1
:1034C000E08E401EE08634E02068806800F0020054
:1034D000022810D1E08E70B1029801280BD1206B28
:1034E000007821680873206B401C2063E08E401E2A
:1034F000E086002002902068806800F0010068B13A
:10350000E08F58B12068C068A16B0870A06B401CA8
:10351000A063E08F401EE08701200290FEF7FEFAD4
:10352000C01BB04201D3701C00B916B90320019032
:103530001EE0E08E0028C7D1E08F0028C4D13A46B3
:103540003146204602F06EFB20B101200190202080
:1035500060650DE0A06850B900BF002000902068B1
:10356000C068009020688068009000BF00BF00BF66
:10357000012084F8510000BF002084F8500000BFF3
:103580000198FBE670B504462546681EB0F1807FC1
:1035900001D301200FE0681E4FF0E02148610F21A8
:1035A0004FF0FF3005F01CFB00204FF0E021886158
:1035B00007200861002070BD7047704710B50346B2
:1035C000002200BF93F83C00012801D1022010BD69
:1035D000012083F83C0000BF22F0FF00CC6840EAE5
:1035E000040222F440708C6840EA040222F48060F5
:1035F0004C6840EA040222F400600C6840EA0402CD
:1036000022F480500C6940EA040222F400504C6914
:1036100040EA040222F48040CC6940EA04021868BF
:10362000426400BF002083F83C0000BF00BFCEE72B
:1036300010B5024600BF92F83C00012801D10220DB
:1036400010BD012082F83C0000BF022082F83D003E
:10365000106843681068846823F0700308680343A7
:1036600024F0800448680443106843601068846054
:10367000012082F83D0000BF002082F83C0000BF1E
:1036800000BFDDE710B504460CB9012010BD94F869
:103690003D0028B9002084F83C00204600F00CF8DA
:1036A000022084F83D00211D206802F0E9FC012081
:1036B00084F83D000020E9E738B504461A4920683F
:1036C000884216D100BF1948C06940F01000174960
:1036D000C8610846C06900F01000009000BF00BF3C
:1036E000002209213620FEF7B7FB3620FEF7A4FBA7
:1036F00019E00F492068884215D100BF0B48C06906
:1037000040F020000949C8610846C06900F0200067
:10371000009000BF00BF00220A213720FEF79CFB6B
:103720003720FEF789FB38BD001000400010024032
:103730000014004001460868C06840F001000B68B2
:10374000D8600868806800F00702062A05D008687B
:10375000006840F001000B681860002070470146C7
:103760000868C06820F001000A68D06000BF0868DF
:10377000006A41F21112104050B90868006A9210B4
:10378000104028B90868006820F001000A6810603D
:1037900000BF002070472DE9F04104460D4614B9E2
:1037A0000120BDE8F08194F83D0028B9002084F89C
:1037B0003C00204600F044F8022084F83D002068D8
:1037C000806844F20701884321688860211D2068D1
:1037D00002F056FC2068D0F80880206886692068CE
:1037E000076A286840EA080840F203308643A9695E
:1037F000A86840EA0120064340F60C4086434FF299
:10380000F0008643E969E86840EA01200643286938
:103810000001296A40EA0130064327F0220769695E
:10382000686840EA011007432068C0F808802068F3
:10383000866120680762012084F83D000020B0E71F
:1038400010B586B0044600200290039004900590C5
:103850002F492068884225D100BF2E48806940F456
:1038600000602C4988610846806900F4006001907E
:1038700000BF00BF00BF0846806940F004008861B7
:103880000846806900F00400019000BF00BF4FF4BB
:103890004070029000200390049002A91E48FDF79A
:1038A00087FF32E01D49206888422ED100BF1948A9
:1038B000C06940F002001749C8610846C06900F0BD
:1038C0000200019000BF00BF00BF0846806940F0C1
:1038D000100088610846806900F01000019000BF68
:1038E00000BFC020029000200390049002A90C4861
:1038F000FDF75EFF00BF0B49486820F4406040F0D0
:10390000E06040F44060486000BF06B010BD0000B9
:10391000002C01400010024000080140000400405B
:10392000001001400000014030B504460D4615B1BD
:10393000042D0CD105E001220021206802F0EEFBED
:1039400010E001220421206802F0E8FB0AE00122D5
:103950000021206802F0E2FB01220421206802F02D
:10396000DDFB00BF00BF2068006840F00100216857
:103970000860002030BD30B504460D4615B1042D59
:103980000CD105E000221146206802F0C7FB10E0D0
:1039900000220421206802F0C1FB0AE00022114647
:1039A000206802F0BBFB00220421206802F0B6FB75
:1039B00000BF00BF00BF2068006A41F2111108403B
:1039C00050B92068006A8910084028B9206800684A
:1039D00020F001002168086000BF002030BD704762
:1039E00010B5044620680069C0F34000D8B12068D3
:1039F000C068C0F34000B0B16FF0020021680861F8
:103A0000012020772068806900F0030018B120466B
:103A1000FFF7E5FF05E0204600F0FCF8204600F047
:103A2000E1F90020207720680069C0F38000D8B158
:103A30002068C068C0F38000B0B16FF00400216856
:103A40000861022020772068806900F4407018B176
:103A50002046FFF7C4FF05E0204600F0DBF82046D3
:103A600000F0C0F90020207720680069C0F3C00092
:103A7000D8B12068C068C0F3C000B0B16FF00800D2
:103A800021680861042020772068C06900F00300E5
:103A900018B12046FFF7A3FF05E0204600F0BAF872
:103AA000204600F09FF90020207720680069C0F3CD
:103AB0000010D8B12068C068C0F30010B0B16FF03A
:103AC000100021680861082020772068C06900F490
:103AD000407018B12046FFF782FF05E0204600F055
:103AE00099F8204600F07EF90020207720680069D0
:103AF00000F0010058B12068C06800F0010030B14A
:103B00006FF0010021680861204600F0DDF92068AF
:103B10000069C0F3C01058B12068C068C0F3C0107D
:103B200030B16FF08000216808612046FFF744FD46
:103B300020680069C0F3801058B12068C068C0F3E5
:103B4000801030B16FF0400021680861204600F01D
:103B50001FFA20680069C0F3401058B12068C0689F
:103B6000C0F3401030B16FF020002168086120469A
:103B7000FFF723FD10BD000010B586B004460020FD
:103B800002900390049005901D492068884218D146
:103B900000BF1C48806940F008001A498861084647
:103BA000806900F00800019000BF00BF4FF4707002
:103BB000029002200390059002A91348FDF7F8FD3A
:103BC0001BE012492068884217D100BF0D48806968
:103BD00040F010000B4988610846806900F0100031
:103BE000019000BF00BF4FF440700290022003908C
:103BF000059002A90648FDF7DBFD06B010BD0000E8
:103C00000008004000100240000C01400034014058
:103C100000100140704770B504460D46164600BFBF
:103C200094F83C00012801D1022070BD012084F8E5
:103C30003C0000BF022084F83D0036B1042E1BD0AA
:103C4000082E31D00C2E5ED145E02946206802F0C6
:103C500077FA2068806940F0080021688861206850
:103C6000806920F0040021688861206880692969E2
:103C700008432168886147E02946206802F098FAE5
:103C80002068806940F4006021688861206880694C
:103C900020F480602168886120688069296940EA91
:103CA0000120216888612FE02946206802F0BEFAD1
:103CB0002068C06940F008002168C8612068C069B8
:103CC00020F004002168C8612068C06929690843A0
:103CD0002168C86118E02946206802F0E3FA2068EC
:103CE000C06940F400602168C8612068C06920F4A0
:103CF00080602168C8612068C069296940EA0120A4
:103D00002168C86100E000BF00BF012084F83D00C9
:103D100000BF002084F83C0000BF00BF85E710B55D
:103D200004460CB9012010BD94F83D0028B90020CC
:103D300084F83C00204600F029F8022084F83D0079
:103D4000211D206802F09CF9012084F83D0000202C
:103D5000E9E700000A4A0168914206D10949C969A8
:103D600021F00401074AD16109E0074A0168914244
:103D700005D10449896921F40051024A91617047D3
:103D800000080040001002400034014008B5124A0B
:103D9000016891420DD100BF1049C96941F0040189
:103DA0000E4AD1611146C96901F00401009100BFBA
:103DB00011E00B4A016891420DD100BF07498969A2
:103DC00041F40051054A91611146896901F400519D
:103DD000009100BF00BF08BD000800400010024075
:103DE000003401407047000070B504460E460122C1
:103DF0003146206802F092F90F492068884203D0CA
:103E00000E492068884201D1012000E0002028B13D
:103E10002068406C40F40040216848642068806855
:103E200000F00705062D05D02068006840F001006D
:103E300021680860002070BD002C01400034014062
:103E400030B504460D4600222946206802F066F986
:103E50001B492068884203D01A492068884201D152
:103E6000012000E0002090B100BF2068006A41F20C
:103E70001111084050B92068006A8910084028B91B
:103E80002068406C20F400402168486400BF00BFF7
:103E90002068006A41F21111084050B92068006A98
:103EA0008910084028B92068006820F001002168C6
:103EB000086000BF012084F83D00002030BD0000F4
:103EC000002C0140003401402DE9F047044626480B
:103ED000A04242D125480068406A1FFA80FA24486F
:103EE0000068406A1FFA80F947F230501F4909689C
:103EF00048621F49096848620146A1EB0900FCF7C6
:103F0000C0FB07461B4A1C4BFCF7D1FA0546FCF7E1
:103F1000E2FB1A49086008468068096808441749A6
:103F2000886047F23051A1EB0A00FCF7AAFB054676
:103F3000104A114BFCF7BBFA0746FCF7CCFB0F49C4
:103F400048600846C068496808440C49C8600C4885
:103F500001880CA004F018FE04E00C48A04201D136
:103F600002F03AF8BDE8F087D4160020D4150020FE
:103F7000141600208D45D3D9C9E0ED3F88020020FA
:103F8000A400002049523D25780A00009416002024
:103F9000704770B50446002520684069C0F3C0151D
:103FA00094F8390021280ED16DB12068406920F0C5
:103FB000800021684861206B10B1206BFCF7C2FFC4
:103FC000204602F023FA20684069C0F3801594F877
:103FD0003A0022280ED16DB12068406920F04000DF
:103FE00021684861606B10B1606BFCF7ABFF204645
:103FF00002F0ECF9002070BD104B02689A4201D12A
:10400000002118E00E4B02689A4201D1012112E012
:104010000C4B02689A4201D102210CE00A4B026863
:104020009A4201D1032106E0084B02689A4201D16D
:10403000042100E0704700BFFCE7000000380140A9
:104040000044004000480040004C00400050004048
:1040500001460022002391F8392091F83A3042EAD3
:10406000030070472DE9F047044620680568206882
:10407000C668206847694FF00008C14605F00F0880
:10408000B8F1000F0AD105F0200038B106F0200089
:1040900020B1204602F0C4F9BDE8F087B8F1000F66
:1040A0006DD007F0010018B906F49070002866D0B2
:1040B00005F0010030B106F4807018B1E06B40F0FB
:1040C0000100E06305F0040030B107F0010018B111
:1040D000E06B40F00200E06305F0020030B107F051
:1040E000010018B1E06B40F00400E06305F0080047
:1040F00030B107F0010018B1E06B40F00800E06358
:10410000E06B68B305F0200028B106F0200010B184
:10411000204602F085F920684069C0F38019E06B01
:1041200000F0080010B9B9F1000F22D0204602F0CB
:104130004DF92068406900F04000B0B12068406946
:1041400020F0400021684861606B50B11748616BF6
:104150004863606BFCF722FF10B1606B416B8847CE
:104160000CE02046FFF748FF08E02046FFF744FF39
:1041700004E02046FFF740FF0020E0638CE705F0F5
:10418000800030B106F0800018B1204602F06CFAD1
:1041900082E705F0400030B106F0400018B120463B
:1041A00002F024F978E700BF76E700001563000805
:1041B00010B504460CB9012010BDA06900B100E0A3
:1041C00000BF94F8390028B9002084F83800204650
:1041D00000F028F8242084F839002068C06820F412
:1041E00000502168C860204602F06EF9206800691E
:1041F00020F49040216808612068406920F02A007E
:10420000216848612068C06840F400502168C86097
:104210000020E063202084F8390084F83A00002070
:10422000CAE7000010B586B0044600200290039053
:104230000490059054492068884250D100BF5348EB
:10424000C06940F400205149C8610846C06900F4C3
:104250000020019000BF00BF00BF0846806940F009
:10426000100088610846806900F01000019000BFCE
:1042700000BF08150290022003900320059002A9B8
:104280004348FDF795FA4FF4006002900020039038
:10429000049002A93E48FDF78BFA3E483E4908606B
:1042A0000020486000213C4881608021C1600021DD
:1042B000016141618161C161FDF710F908B1FCF74D
:1042C000F5FD00BF34486063446200BF0022062150
:1042D0003420FDF7C1FD3420FDF7AEFD52E02F493B
:1042E000206888424ED100BF2848C06940F40030A1
:1042F0002649C8610846C06900F40030019000BF3B
:1043000000BF00BF0846806940F00400886108468D
:10431000806900F00400019000BF00BF04200290FB
:10432000022003900320059002A91D48FDF740FAE2
:104330000820029000200390049002A91848FDF77D
:1043400037FA1848184908600020486000211648CC
:1043500081608021C1600021016141618161C16191
:10436000FDF7BCF808B1FCF7A1FD00BF0E48606383
:10437000446200BF002206212620FDF76DFD2620A5
:10438000FDF75AFD06B010BD004C00400010024081
:104390000010014030040240D417002000440040C7
:1043A000000801406C0002401818002077B581B069
:1043B0000446154694F83A00202850D1029800B1DE
:1043C00015B9012004B070BD00BF94F83800012871
:1043D00001D10220F6E7012084F8380000BF0298DE
:1043E000A062A5850020E063222084F83A001D48E1
:1043F000616B88621C48616BC8621C48616B086312
:104400000020616B486302AE32682368191D2B4699
:10441000606BFDF7A9F800BF0020009020680068DD
:10442000009020684068009000BF00BF00BF0020DF
:1044300084F8380000BF2068C06840F480702168AC
:10444000C8602068406940F0010021684861206828
:10445000406940F04000216848610020B2E7022036
:10446000B0E7000079630008BF6300082963000813
:1044700070B5054641492868884201D1002418E0FA
:104480003F492868884201D1012412E03D4928684B
:10449000884201D102240CE03B492868884201D1BE
:1044A000032406E039492868884201D1042400E049
:1044B00070BD802104EB0410354A02EB801000F23D
:1044C000144004EB0412324B03EB8212D2F838246E
:1044D00040F8221004EB0410194601EB8010D0F8CC
:1044E0003804072808D1002004EB04111A4602EB17
:1044F0008111C1F838040EE004EB0410244901EBEB
:104500008010D0F83804401C04EB0411204A02EB60
:104510008111C1F8380404EB04121D4B03EB821225
:104520000C3204EB04131A4E06EB8313D3F8383421
:1045300003EBC313D11804EB0412334603EB8212CE
:1045400010688022FFF732FF04EB0410314601EBC4
:104550008010D0F8380404EB0411324602EB8111CC
:10456000D1F83414884206D1012004EB041102EB87
:104570008111C1F83C0400BF9AE7000000380140F7
:104580000044004000480040004C00400050004003
:10459000F802002070472DE9F84304460D46164600
:1045A0001F464FF0000994F8390020285CD105B16E
:1045B00016B90120BDE8F88300BF94F8380001283F
:1045C00001D10220F6E7012084F8380000BF002066
:1045D000E063212084F83900FDF7A0FA8146A68423
:1045E000E6842BE0E08C401EE084A068B0F5805F9C
:1045F00016D14B46002280212046009702F068F831
:1046000008B10320D6E7A846B8F80000C0F30800B8
:1046100021684860206908B9AD1C0FE06D1C0DE0F1
:104620004B46002280212046009702F051F808B145
:104630000320BFE715F8010B21684860E08C0028D3
:10464000D0D14B46002240212046009702F040F88E
:1046500008B10320AEE7202084F8390000BF002015
:1046600084F8380000BFA5E70220A3E7704700BF29
:10467000FEE700001FB52C48FEF708FC00220421CD
:104680002A48FDF744FA00224FF400412848FDF77C
:104690003EFA002220212748FDF739FA002208219E
:1046A0002448FDF734FA002210212248FDF72FFAA2
:1046B00020212048FCF7BAFF08211E48FCF7B6FF6E
:1046C00010211C48FCF7B2FF04200090002001904C
:1046D000029069461548FDF76BF84FF400400090D2
:1046E00000200190029069461148FDF761F82020F2
:1046F000009000200190029069460E48FDF758F89E
:104700000820009000200190029069460948FDF7BA
:104710004FF8102000900020019002906946054853
:10472000FDF746F81FBD00007C1500200014014075
:1047300000080140000C0140002003490860486067
:104740008860C860704700008802002030B50B46C2
:10475000002100BF16E00A24B4EB107F05D93024F5
:1047600004EB107403F8114005E0412404EB1074CD
:104770000A3C03F81140000100254C00641C1D5543
:104780004C1CE1B29142E6DB30BD000070B594B044
:1047900044222A4903A8FBF7F7FC29A103C9CDE964
:1047A00001010126002443E000F08BF808B900263F
:1047B00040E001A8015DC12000F0C0F90021C32044
:1047C00000F0BCF90421082000F0B8F90120FCF742
:1047D00019FF0021082000F0B1F90120FCF712FFB9
:1047E000002514E004EB840000EBC40003A9084496
:1047F000405D00B90DE004EB840000EBC40003AAA7
:104800001044415D052000F099F9681CC5B2142DD3
:10481000E8DB00BF2946B92000F090F9FF21B22063
:1048200000F08CF90421372000F088F9601CC4B234
:10483000052CB9DB00BF304614B070BD9499000858
:10484000010103070800000010B53021352000F0F9
:1048500075F909211C2000F071F92021BD2000F01C
:104860006DF90121082000F069F90120FCF7CAFE6A
:104870000021082000F062F90120FCF7C3FE00F0DF
:1048800020F808B9002010BDFF21B22000F056F931
:104890000621372000F052F90520FCF7B3FE0B216A
:1048A0001C2000F04BF91021292000F047F90021CD
:1048B000BD2000F043F90120E5E710B500F01AF83B
:1048C00010BD38B5002500240FE06946B22000F085
:1048D00009F928B99DF80000212801D1012506E039
:1048E0000A20FCF78FFE601CC4B20A2CEDDB00BF6F
:1048F000284638BD10B500F033F86021B32000F031
:104900001DF90021BD2000F019F94821172000F001
:1049100015F90A20FCF776FE80213C2000F00EF904
:1049200007213E2000F00AF9FF21382000F006F9A7
:1049300007213A2000F002F90021402000F0FEF8A3
:104940000821422000F0FAF80021442000F0F6F897
:104950000821462000F0F2F80120FCF753FE10BDBC
:1049600008B56946062000F0BDF83521172000F093
:10497000E5F80A20FCF746FE6946062000F0B2F88A
:104980000321892000F0DAF80520FCF73BFE4321E3
:10499000CF2000F0D3F80520FCF734FE0221CB2015
:1049A00000F0CCF80B21112000F0C8F800211E20E7
:1049B00000F0C4F83F21192000F0C0F848211B2066
:1049C00000F0BCF81F211D2000F0B8F80A20FCF709
:1049D00019FE0421CD2000F0B1F84C21172000F081
:1049E000ADF80520FCF70EFE0021B92000F0A6F876
:1049F0004F21CF2000F0A2F8FF216F2000F09EF899
:104A000008BD0000F8B500240025002600276946EF
:104A10002B2000F067F800B1F8BD9DF80070002170
:104A2000292000F08BF80021022000F087F8694669
:104A3000B22000F057F800B1EEE79DF8005069464B
:104A4000BF2000F04FF800B1E6E79DF8006007F0E6
:104A50001000F0B1212D1CD1352E1AD16946BA2093
:104A600000F040F800B1D7E79DF80040002C0CDDC5
:104A7000042C0ADC6946C52000F034F800B1CBE70D
:104A80009DF800000949087006E0002007490870F9
:104A900002E000200549087000212B2000F04EF8AC
:104AA00000211C2000F04AF800BFB5E7F800002004
:104AB00010B50446012C05D1002220210748FDF73E
:104AC00026F804E0012220210448FDF720F8012205
:104AD00010210348FDF71BF810BD00000010014035
:104AE00000080140F8B504460E4605208DF8000088
:104AF0008DF80140002210210E48FDF708F84FF014
:104B0000FF33022269460C480068FEF755FB054654
:104B100045B94FF0FF330122314607480068FEF7E0
:104B200099FA0546012210210248FCF7F0FF2846B9
:104B3000F8BD000000080140FC000020F8B5044664
:104B40000D4604208DF800008DF801408DF80250CC
:104B5000002210210948FCF7DAFF4FF0FF3303224F
:104B6000694607480068FEF727FB06460122102128
:104B70000248FCF7CCFF3046F8BD000000080140B9
:104B8000FC00002070B505460C4625B1012D1BD058
:104B9000022D45D12EE054B9012202212248FCF712
:104BA000B6FF012211462048FCF7B1FF0BE0012CB3
:104BB00009D1002202211C48FCF7A9FF0022012193
:104BC0001948FCF7A4FF2CE02CB901220221164859
:104BD000FCF79DFF0DE0012C05D1002202211248B7
:104BE000FCF795FF05E0022C03D102210E48FCF7EB
:104BF00087FF16E02CB9012211460B48FCF787FF0E
:104C00000DE0012C05D1002201210748FCF77FFFB0
:104C100005E0022C03D101210348FCF771FF00E0FD
:104C200000BF00BF70BD0000000801402DE9FC5F1F
:104C30001A49B1F908104842FBF71AFD0446174813
:104C400001692046FBF74EFB14498862B1F9040064
:104C5000FBF717FD06460F461049B1F90000FBF7B8
:104C600010FD804632463B4604F0B0FA044600226E
:104C70000B4BFBF71CFC82460A4A0B4BFBF789FCEB
:104C8000CDE90001FBF759FD044948630A46916AE2
:104C9000506BFCF781F8BDE8FC9F0000A8020020E3
:104CA0000080664044174154FB2109401CB504466E
:104CB00001A9204600F0A2F8611CC8B2694600F0C4
:104CC0009DF89DF800009DF8041000EB012000B253
:104CD0001CBD000010B53B20FFF7E8FF0B49088022
:104CE0003D20FFF7E3FF094948803F20FFF7DEFF43
:104CF000064988804520FFF7D9FF044908814720ED
:104D0000FFF7D4FF0149488110BD0000A802002030
:104D100010B550213448FBF750FA00216B2000F009
:104D200097F800216C2000F093F806211A2000F07B
:104D30008FF83021372000F08BF84D21242000F02F
:104D400087F810216A2000F083F80121672000F025
:104D50007FF88121272000F07BF80721192000F03F
:104D600077F808211B2000F073F808211C2000F0C0
:104D70006FF81D491C31752000F040F8012030B15A
:104D8000012808D002280AD0032810D10BE0042003
:104D9000154988810BE003201349888107E0022030
:104DA0001149888103E001200F49888100BF00BFBD
:104DB000012030B1012808D002280AD0032810D1E0
:104DC0000BE00A48084908610BE0094806490861F8
:104DD00007E008480449086103E007480249086100
:104DE00000BF00BF10BD0000A80200200000034368
:104DF000000083423333034233338341F8B5044622
:104E00000E4644F08000009000224FF480510E487E
:104E1000FCF77DFE4FF0FF33012269460B48006826
:104E2000FEF7CAF9054645B94FF0FF330122314676
:104E300006480068FEF70EF90546012211030248F4
:104E4000FCF765FE2846F8BD000C0140C4000020B8
:104E5000F8B504460D468DF800408DF8015000224B
:104E60004FF480510948FCF752FE4FF0FF33022205
:104E7000694607480068FEF79FF9064601221103BC
:104E80000248FCF744FE3046F8BD0000000C01402B
:104E9000C400002008B500BF1548406940F001007B
:104EA000134948610846406900F00100009000BFC6
:104EB00000BF00BF0846406940F002004861084654
:104EC000406900F00200009000BF00BF00220521F1
:104ED0001020FCF7C1FF1020FCF7AEFF00220521D7
:104EE0003A20FCF7B9FF3A20FCF7A6FF08BD000006
:104EF0000010024000B585B00020019002900390A0
:104F0000049000BF5748806940F0100055498861FF
:104F10000846806900F01000009000BF00BF00BF8D
:104F20000846806940F0200088610846806900F0EA
:104F30002000009000BF00BF00BF0846806940F01D
:104F4000040088610846806900F00400009000BFFA
:104F500000BF00BF0846806940F00800886108462D
:104F6000806900F00800009000BF00BF00222F21E0
:104F70003D48FCF7CCFD002248F203413B48FCF7DA
:104F8000C6FD012210213948FCF7C1FD002241F283
:104F900013013748FCF7BBFD012204213448FCF71C
:104FA000B6FD002204213348FCF7B1FD4FF4405018
:104FB000019000200290039001A92B48FCF7F8FB18
:104FC0002F200190012002900020039002200490E5
:104FD00001A92548FCF7ECFB48F2034001900120B1
:104FE0000290002003900220049001A91F48FCF7C2
:104FF000DFFB10200190012002900390022004901A
:1050000001A91A48FCF7D4FB102001901A4802901D
:105010000120039001A91448FCF7CAFB41F21700D4
:10502000019001200290002003900220049001A929
:105030000F48FCF7BDFB04200190012002900020E6
:1050400003900220049001A90A48FCF7B1FB00225A
:1050500007210A20FCF700FF0A20FCF7EDFE05B04F
:1050600000BD000000100240001001400008014097
:10507000000C0140001401400000211010B50B4845
:105080000B4908600B484860002109488160C160F5
:105090004FF480410161002141618161C161016280
:1050A000FCF742FD08B1FBF701FF10BD00580040BE
:1050B00078140020A086010010B50E480E49086043
:1050C0004FF48270486000210B488160C16001612B
:1050D00001214161490281610821C1610021016210
:1050E000416281620A21C162FDF78CFE08B1FBF7C3
:1050F000DDFE10BD00300140CC14002010B50E487C
:105100000E4908604FF48270486000210B488160AE
:10511000C1600221016101214161490281610021D7
:10512000C1610162416281620A21C162FDF76AFECA
:1051300008B1FBF7BBFE10BD00380040241500206D
:1051400010B51048104908604FF4827048604FF461
:1051500000410D4881600021C160022101610121EF
:105160004161490281610821C161002101624162FE
:1051700081620A21C162FDF745FE08B1FBF796FE88
:1051800010BD0000003C00407C15002000B58BB035
:10519000242102A8FBF711F8002000900190184884
:1051A00018490860002048600021164881604FF6C9
:1051B000FF71C160002101614161816103200290A2
:1051C0000020039001200490002005900690079095
:1051D00001200890002009900A9002A90948FEF7D2
:1051E000DAFA08B1FBF762FE0020009001906946F0
:1051F0000448FEF71DFA08B1FBF758FE0BB000BDDE
:10520000002C0140D415002000B58BB0242102A849
:10521000FAF7D3FF00200090019018481849086061
:10522000002048600021164881604FF6FF71C16080
:105230000021016181610320029000200390012080
:10524000049000200590069007900120089000200F
:1052500009900A9002A90A48FEF79DFA08B1FBF7E7
:1052600025FE00200090019069460548FEF7E0F910
:1052700008B1FBF71BFE0BB000BD000000040040AE
:105280001416002000B589B00020079008901C215A
:105290006846FAF792FF22482249086000204860D9
:1052A000002120488160C16001618161FEF737FD06
:1052B00008B1FBF7FBFD00200790089007A91948EB
:1052C000FEF7B6F908B1FBF7F1FD60200090002071
:1052D000019002900490002269461248FEF79BFC60
:1052E00008B1FBF7E3FD042269460E48FEF793FC84
:1052F00008B1FBF7DBFD082269460A48FEF78BFC84
:1053000008B1FBF7D3FD0C2269460648FEF783FC83
:1053100008B1FBF7CBFD0348FEF72EFC09B000BD3A
:1053200000080040541600201CB500200090019099
:105330000E480F49086041F61F40486000210C48A4
:1053400081603121C16000218161FEF79BF908B1C4
:10535000FBF7ACFD00200090019069460448FEF781
:1053600067F908B1FBF7A2FD1CBD0000001000406A
:10537000941600201CB50020009001900E480F49A3
:10538000086041F61F40486000210C48816040F2EF
:10539000F311C16080218161FEF774F908B1FBF758
:1053A00085FD00200090019069460448FEF740F911
:1053B00008B1FBF77BFD1CBD00140040D416002093
:1053C00000B591B000200F9010901C2108A8FAF7AA
:1053D000F4FE20216846FAF7F0FE274827490860C6
:1053E0000520486000212548816040F2E731C16016
:1053F00000210161416180218161FEF790FC08B1CB
:10540000FBF754FD00200F9010900FA91B48FEF7EA
:105410000FF908B1FBF74AFD6020089000200990C1
:105420000A900B900C900D900E90082208A913483A
:10543000FEF7F1FB08B1FBF739FD0C2208A90F4874
:10544000FEF7E9FB08B1FBF731FD00200090019069
:105450000290039004904FF40050059000200790B4
:1054600069460648FEF7AAF808B1FBF71FFD034896
:10547000FEF782FB11B000BD00340140141700207C
:1054800010B50B480B4908604FF4E130486000212B
:1054900008488160C16001610C2141610021816186
:1054A000C161FEF785FE08B1FBF700FD10BD0000ED
:1054B000004C00405417002010B50B480B49086001
:1054C0004FF4E1304860002108488160C16001610B
:1054D0000C21416100218161C161FEF769FE08B1C3
:1054E000FBF7E4FC10BD00000044004094170020CE
:1054F00010B500220D490E4801F09BFD08B1FBF7E5
:10550000D5FC0C490A4802F029F808B1FBF7CEFC9B
:105510000949074801F04BFA08B1FBF7C7FC0448FA
:1055200002F0E6F808B1FBF7C1FC10BD0001002055
:105530005C180020800100205001002000BFFEE721
:105540002DE9F84F444D0026444F40F226294FF0F4
:1055500000084348816C4046FAF73AFE8046414ACB
:105560005168106804F0E0F83F4908603C49B1F91F
:105570000A00FBF77DF804463A4A51681068224653
:1055800004F094F8394908603549886A3946FAF7D1
:1055900077FE314600904046FAF772FE8246304967
:1055A000886C2946FAF76CFE83465146FAF710FEDE
:1055B00004460099FAF70CFE2D4908600846006879
:1055C000FBF770F828490968441A002C01DB2046D3
:1055D00000E0604200F2262000B22649088008461A
:1055E000B0F900002449888021480068FBF75AF888
:1055F0001D490968401A16D51E4909881B4A128898
:10560000891A1E4A1288891A88B203F03BFF194989
:105610000988164A12881144184A1288114488B21F
:1056200003F0B8FF0FE013490988104A12881144AB
:1056300088B203F007FF0F4909880C4A1288891ABB
:1056400088B203F087FF0E480078352801D104F0B6
:105650001DF9BDE8F88F0000000030419A99593FCC
:10566000A802002088020020880000208C00002072
:10567000800000207C000020A4000020900000207A
:10568000EC00002010B508210D48FEF7D9FB0C21D5
:105690000B48FEF7D5FB002208210A48FCF737FA31
:1056A000002204210748FCF732FA002208210548AD
:1056B000FCF72DFA002204210248FCF728FA10BD5D
:1056C00014170020001001400278014B1A70704737
:1056D000EC00002070472DE9F0470546BDE1286841
:1056E000B0F8449009F00F06002E7ED109F01000AA
:1056F000B0BB00BF2968098848F60F7201EA0200B2
:1057000040F400412A68118000BF05F12804286890
:10571000B0F85010207801EBC000801C296801F51A
:10572000806131F81000C0F30900E061E16960694F
:105730000844606100212846FCF7FFFB95F824002F
:105740000028CBD0A0690028C8D195F8240040F0EB
:1057500080002968A1F84C00002085F824007CE135
:10576000FFE705F594742868B0F8008008F400603D
:1057700030B32868B0F85010207801EBC000801DCD
:10578000296801F5806131F81000C0F30900E0617B
:10579000A18B8BB2E28805F50C71286802F0F4FF4A
:1057A00000BF2968098840F68F7201EA020040F0C4
:1057B00080012A68118000BF2846FCF7D6FE4CE124
:1057C00008F40040002889D000BF2968098840F605
:1057D0008F7201EA020040F080012A68118000BF48
:1057E0002868B0F85010207800E069E001EBC000B4
:1057F000801D296801F5806131F81000C0F30900AF
:10580000E061E06990B1606980B1B4F81CC01FFA32
:105810008CF3E2886169286802F0B6FFE16960698B
:105820000844606100212846FCF795FB00BF2A6808
:105830002968B1F850100A4402F20C41084600BF32
:10584000236953B9038848F2FF3C03EA0C03038041
:10585000038843F4004303801EE023693E2B0DD8E8
:1058600000BF23695908237C03F0010303B1491CDD
:105870004FF6FF7303EA812303800DE000BF236925
:105880005909237C03F01F0303B9491E4FF4004359
:1058900043EA8123038000BF00BF00BF00BF296827
:1058A00009884BF68F7201EA020080F4805080F480
:1058B000005040F4004141F080012A681180CCE0A2
:1058C0007100286830F8118008F4004000287ED06C
:1058D00000BF7200296831F8121040F68F7201EA99
:1058E000020040F0800173002A6822F8131000BF04
:1058F00005F5947000EB4614207BB0B92868B0F829
:105900005010207801EBC000801D296801F58061EE
:1059100031F81000C0F30907002F4FD0E288616909
:105920003B46286802F030FF48E0217849002868AB
:1059300030F8110000F48040A8B12868B0F8501089
:10594000207801EBC000801C296801F5806131F8E6
:105950001000C0F30907DFB1228961693B4628685E
:1059600002F012FF14E02868B0F85010207801EB24
:10597000C000801D296801F5806131F81000C0F376
:1059800009072FB1628961693B46286802F0FCFE75
:1059900000BF00BF22785200296831F8121048F683
:1059A0008F7201EA020040F4004141F0C001237807
:1059B0005B002A6822F8131000BF00BFE06938447A
:1059C000E061606938446061A06920B100E00DE0E9
:1059D0002069B84204D921782846FCF7BCFA05E0D2
:1059E00021782846D4E90523FCF779FB08F08000EC
:1059F00060B305F1280000EB461400BF720029686F
:105A000031F8121048F60F7201EA020040F400412A
:105A100073002A6822F8131000BF2868B0F85010ED
:105A2000207801EBC000801C296801F5806131F805
:105A30001000C0F30900E061E16960690844606139
:105A4000A06920B921782846FCF777FA05E021788B
:105A50002846D4E90523FCF7A6FB2868B0F84400E3
:105A600000F4004000287FF43AAEBDE8F0877047AC
:105A700008B508490968C9084FF47A72B1FBF2F118
:105A80004143009100BF00BF00994A1E00920029C7
:105A9000F9D108BD6C01002010B54FF480511048B9
:105AA000FCF726F898B90F480078012808D10E486D
:105AB0000078012804D100200B490870012010BD96
:105AC0000120084908703220FBF79CFD05E000200A
:105AD000044908700120044908700020EFE7000025
